{
  "contractName": "Faucet",
  "abi": [
    {
      "anonymous": false,
      "inputs": [
        {
          "indexed": true,
          "internalType": "address",
          "name": "from",
          "type": "address"
        },
        {
          "indexed": false,
          "internalType": "uint256",
          "name": "amount",
          "type": "uint256"
        }
      ],
      "name": "Deposit",
      "type": "event"
    },
    {
      "anonymous": false,
      "inputs": [
        {
          "indexed": true,
          "internalType": "address",
          "name": "to",
          "type": "address"
        },
        {
          "indexed": false,
          "internalType": "uint256",
          "name": "amount",
          "type": "uint256"
        }
      ],
      "name": "Withdraw",
      "type": "event"
    },
    {
      "inputs": [],
      "name": "destroy",
      "outputs": [],
      "stateMutability": "nonpayable",
      "type": "function"
    },
    {
      "stateMutability": "payable",
      "type": "receive",
      "payable": true
    },
    {
      "inputs": [
        {
          "internalType": "uint256",
          "name": "withdraw_amount",
          "type": "uint256"
        }
      ],
      "name": "withdraw",
      "outputs": [],
      "stateMutability": "nonpayable",
      "type": "function"
    }
  ],
  "bytecode": "0x608060405234801561001057600080fd5b50336000806101000a81548173ffffffffffffffffffffffffffffffffffffffff021916908373ffffffffffffffffffffffffffffffffffffffff16021790555061047b806100606000396000f3fe60806040526004361061002d5760003560e01c80632e1a7d4d1461008757806383197ef0146100b057610082565b36610082573373ffffffffffffffffffffffffffffffffffffffff167fe1fffcc4923d04b559f4d29a8bfc6cda04eb5b0d3c460751c2402c5c5cc9109c346040516100789190610297565b60405180910390a2005b600080fd5b34801561009357600080fd5b506100ae60048036038101906100a991906102e3565b6100c7565b005b3480156100bc57600080fd5b506100c56101b7565b005b67016345785d8a00008111156100dc57600080fd5b8047101561011f576040517f08c379a000000000000000000000000000000000000000000000000000000000815260040161011690610393565b60405180910390fd5b3373ffffffffffffffffffffffffffffffffffffffff166108fc829081150290604051600060405180830381858888f19350505050158015610165573d6000803e3d6000fd5b503373ffffffffffffffffffffffffffffffffffffffff167f884edad9ce6fa2440d8a54cc123490eb96d2768479d49ff9c7366125a9424364826040516101ac9190610297565b60405180910390a250565b60008054906101000a900473ffffffffffffffffffffffffffffffffffffffff1673ffffffffffffffffffffffffffffffffffffffff163373ffffffffffffffffffffffffffffffffffffffff1614610245576040517f08c379a000000000000000000000000000000000000000000000000000000000815260040161023c90610425565b60405180910390fd5b60008054906101000a900473ffffffffffffffffffffffffffffffffffffffff1673ffffffffffffffffffffffffffffffffffffffff16ff5b6000819050919050565b6102918161027e565b82525050565b60006020820190506102ac6000830184610288565b92915050565b600080fd5b6102c08161027e565b81146102cb57600080fd5b50565b6000813590506102dd816102b7565b92915050565b6000602082840312156102f9576102f86102b2565b5b6000610307848285016102ce565b91505092915050565b600082825260208201905092915050565b7f496e73756666696369656e742062616c616e636520696e20666175636574206660008201527f6f72207769746864726177207265717565737400000000000000000000000000602082015250565b600061037d603383610310565b915061038882610321565b604082019050919050565b600060208201905081810360008301526103ac81610370565b9050919050565b7f4f6e6c792074686520636f6e7472616374206f776e65722063616e2063616c6c60008201527f20746869732066756e6374696f6e000000000000000000000000000000000000602082015250565b600061040f602e83610310565b915061041a826103b3565b604082019050919050565b6000602082019050818103600083015261043e81610402565b905091905056fea26469706673582212201d6674ff7ce01992a40540bcd3bccf4f80a422df8d0fd3e09ce97108f3e45ac564736f6c634300080b0033",
  "immutableReferences": {},
  "source": "// SPDX-License-Identifier: CC-BY-SA-4.0\n\npragma solidity ^0.8.11;\n\ncontract Owned {\n\taddress payable owner;\n\n\t// Initialize Faucet contract: set owner\n  constructor() {\n    owner = payable(msg.sender);\n  }\n\n\t// Access control modifier\n  modifier onlyOwner {\n    require(msg.sender == owner, 'Only the contract owner can call this function');\n    _;\n  }\n}\n\ncontract Mortal is Owned {\n\t// Contract destructor\n  function destroy() public onlyOwner {\n    selfdestruct(owner);\n  }\n\n}\n\ncontract Faucet is Mortal{\n  event Withdraw(address indexed to, uint amount);\n  event Deposit(address indexed from, uint amount);\n\n  // Accept any incoming amount\n  receive() external payable{\n    emit Deposit(msg.sender, msg.value);\n  }\n\n  // Give out ether to anyone who asks\n  function withdraw(uint withdraw_amount) public {\n    // Limit withdraw amount\n    require(withdraw_amount <= 0.1 ether);\n\n    // Check if balance is enough\n    require(address(this).balance >= withdraw_amount, 'Insufficient balance in faucet for withdraw request');\n\n    // Send the amount to the address that requiested it\n    payable(msg.sender).transfer(withdraw_amount);\n\n    emit Withdraw(msg.sender, withdraw_amount);\n  }\n}",
  "sourcePath": "/home/magrao/Workspace/mastering-ethereum/contracts/Faucet.sol",
  "compiler": {
    "name": "solc",
    "version": "0.8.11+commit.d7f03943.Emscripten.clang"
  },
  "schemaVersion": "3.4.4",
  "updatedAt": "2022-02-04T08:44:56.738Z",
  "networkType": "ethereum",
  "devdoc": {
    "kind": "dev",
    "methods": {},
    "version": 1
  },
  "userdoc": {
    "kind": "user",
    "methods": {},
    "version": 1
  }
}