{
  "contractName": "Mortal",
  "abi": [
    {
      "inputs": [],
      "name": "destroy",
      "outputs": [],
      "stateMutability": "nonpayable",
      "type": "function"
    }
  ],
  "bytecode": "0x608060405234801561001057600080fd5b50336000806101000a81548173ffffffffffffffffffffffffffffffffffffffff021916908373ffffffffffffffffffffffffffffffffffffffff1602179055506101da806100606000396000f3fe608060405234801561001057600080fd5b506004361061002b5760003560e01c806383197ef014610030575b600080fd5b61003861003a565b005b60008054906101000a900473ffffffffffffffffffffffffffffffffffffffff1673ffffffffffffffffffffffffffffffffffffffff163373ffffffffffffffffffffffffffffffffffffffff16146100c8576040517f08c379a00000000000000000000000000000000000000000000000000000000081526004016100bf90610184565b60405180910390fd5b60008054906101000a900473ffffffffffffffffffffffffffffffffffffffff1673ffffffffffffffffffffffffffffffffffffffff16ff5b600082825260208201905092915050565b7f4f6e6c792074686520636f6e7472616374206f776e65722063616e2063616c6c60008201527f20746869732066756e6374696f6e000000000000000000000000000000000000602082015250565b600061016e602e83610101565b915061017982610112565b604082019050919050565b6000602082019050818103600083015261019d81610161565b905091905056fea26469706673582212207033d6c1d38886b53320633925fc08b3fc4812e609365a86313b53dd19c9e00d64736f6c634300080b0033",
  "immutableReferences": {},
  "source": "// SPDX-License-Identifier: CC-BY-SA-4.0\n\npragma solidity ^0.8.11;\n\ncontract Owned {\n\taddress payable owner;\n\n\t// Initialize Faucet contract: set owner\n  constructor() {\n    owner = payable(msg.sender);\n  }\n\n\t// Access control modifier\n  modifier onlyOwner {\n    require(msg.sender == owner, 'Only the contract owner can call this function');\n    _;\n  }\n}\n\ncontract Mortal is Owned {\n\t// Contract destructor\n  function destroy() public onlyOwner {\n    selfdestruct(owner);\n  }\n\n}\n\ncontract Faucet is Mortal{\n  event Withdraw(address indexed to, uint amount);\n  event Deposit(address indexed from, uint amount);\n\n  // Accept any incoming amount\n  receive() external payable{\n    emit Deposit(msg.sender, msg.value);\n  }\n\n  // Give out ether to anyone who asks\n  function withdraw(uint withdraw_amount) public {\n    // Limit withdraw amount\n    require(withdraw_amount <= 0.1 ether);\n\n    // Check if balance is enough\n    require(address(this).balance >= withdraw_amount, 'Insufficient balance in faucet for withdraw request');\n\n    // Send the amount to the address that requiested it\n    payable(msg.sender).transfer(withdraw_amount);\n\n    emit Withdraw(msg.sender, withdraw_amount);\n  }\n}",
  "sourcePath": "/home/magrao/Workspace/mastering-ethereum/contracts/Faucet.sol",
  "compiler": {
    "name": "solc",
    "version": "0.8.11+commit.d7f03943.Emscripten.clang"
  },
  "schemaVersion": "3.4.4",
  "updatedAt": "2022-02-03T11:06:33.729Z",
  "devdoc": {
    "kind": "dev",
    "methods": {},
    "version": 1
  },
  "userdoc": {
    "kind": "user",
    "methods": {},
    "version": 1
  }
}